{
  "contractName": "Donations",
  "abi": [
    {
      "inputs": [],
      "name": "club",
      "outputs": [
        {
          "internalType": "address payable",
          "name": "",
          "type": "address"
        }
      ],
      "stateMutability": "view",
      "type": "function",
      "constant": true
    },
    {
      "inputs": [],
      "name": "confirmedDonations",
      "outputs": [
        {
          "internalType": "uint256",
          "name": "",
          "type": "uint256"
        }
      ],
      "stateMutability": "view",
      "type": "function",
      "constant": true
    },
    {
      "inputs": [
        {
          "internalType": "uint256",
          "name": "",
          "type": "uint256"
        }
      ],
      "name": "donations",
      "outputs": [
        {
          "internalType": "uint256",
          "name": "id",
          "type": "uint256"
        },
        {
          "internalType": "string",
          "name": "status",
          "type": "string"
        },
        {
          "internalType": "uint256",
          "name": "donorid",
          "type": "uint256"
        },
        {
          "internalType": "string",
          "name": "clubid",
          "type": "string"
        },
        {
          "internalType": "string",
          "name": "donorname",
          "type": "string"
        },
        {
          "internalType": "string",
          "name": "clubname",
          "type": "string"
        },
        {
          "internalType": "string",
          "name": "donormail",
          "type": "string"
        },
        {
          "internalType": "uint256",
          "name": "timestamp",
          "type": "uint256"
        },
        {
          "internalType": "uint256",
          "name": "amount",
          "type": "uint256"
        },
        {
          "internalType": "address payable",
          "name": "donorAddress",
          "type": "address"
        },
        {
          "internalType": "address payable",
          "name": "clubAddress",
          "type": "address"
        }
      ],
      "stateMutability": "view",
      "type": "function",
      "constant": true
    },
    {
      "inputs": [],
      "name": "donor",
      "outputs": [
        {
          "internalType": "address payable",
          "name": "",
          "type": "address"
        }
      ],
      "stateMutability": "view",
      "type": "function",
      "constant": true
    },
    {
      "inputs": [],
      "name": "totalDonations",
      "outputs": [
        {
          "internalType": "uint256",
          "name": "",
          "type": "uint256"
        }
      ],
      "stateMutability": "view",
      "type": "function",
      "constant": true
    },
    {
      "inputs": [
        {
          "internalType": "uint256",
          "name": "_donorId",
          "type": "uint256"
        },
        {
          "internalType": "string",
          "name": "_clubId",
          "type": "string"
        },
        {
          "internalType": "string",
          "name": "_donorname",
          "type": "string"
        },
        {
          "internalType": "string",
          "name": "_clubname",
          "type": "string"
        },
        {
          "internalType": "string",
          "name": "_donormail",
          "type": "string"
        },
        {
          "internalType": "uint256",
          "name": "_amount",
          "type": "uint256"
        },
        {
          "internalType": "address",
          "name": "_clubAddr",
          "type": "address"
        }
      ],
      "name": "addDonation",
      "outputs": [],
      "stateMutability": "payable",
      "type": "function",
      "payable": true
    },
    {
      "inputs": [
        {
          "internalType": "uint256",
          "name": "_index",
          "type": "uint256"
        }
      ],
      "name": "signDonation",
      "outputs": [],
      "stateMutability": "nonpayable",
      "type": "function"
    },
    {
      "inputs": [],
      "name": "getAllDonations",
      "outputs": [
        {
          "components": [
            {
              "internalType": "uint256",
              "name": "id",
              "type": "uint256"
            },
            {
              "internalType": "string",
              "name": "status",
              "type": "string"
            },
            {
              "internalType": "uint256",
              "name": "donorid",
              "type": "uint256"
            },
            {
              "internalType": "string",
              "name": "clubid",
              "type": "string"
            },
            {
              "internalType": "string",
              "name": "donorname",
              "type": "string"
            },
            {
              "internalType": "string",
              "name": "clubname",
              "type": "string"
            },
            {
              "internalType": "string",
              "name": "donormail",
              "type": "string"
            },
            {
              "internalType": "uint256",
              "name": "timestamp",
              "type": "uint256"
            },
            {
              "internalType": "uint256",
              "name": "amount",
              "type": "uint256"
            },
            {
              "internalType": "address payable",
              "name": "donorAddress",
              "type": "address"
            },
            {
              "internalType": "address payable",
              "name": "clubAddress",
              "type": "address"
            }
          ],
          "internalType": "struct Donations.Donation[]",
          "name": "",
          "type": "tuple[]"
        }
      ],
      "stateMutability": "view",
      "type": "function",
      "constant": true
    }
  ],
  "bytecode": "0x608060405260008055600060015534801561001957600080fd5b50611ae7806100296000396000f3fe60806040526004361061007b5760003560e01c80633bfdf1e51161004e5780633bfdf1e51461012c578063b468bfba14610155578063de2ed89314610171578063f8626af81461019c5761007b565b80630efd0973146100805780630f5eedbf146100ab57806325223bd4146100d657806338a59a0714610101575b600080fd5b34801561008c57600080fd5b506100956101e3565b6040516100a29190610f2b565b60405180910390f35b3480156100b757600080fd5b506100c0610209565b6040516100cd9190610f5f565b60405180910390f35b3480156100e257600080fd5b506100eb61020f565b6040516100f89190610f2b565b60405180910390f35b34801561010d57600080fd5b50610116610235565b60405161012391906111f5565b60405180910390f35b34801561013857600080fd5b50610153600480360381019061014e9190611257565b6106a3565b005b61016f600480360381019061016a91906113f7565b610877565b005b34801561017d57600080fd5b50610186610b1c565b6040516101939190610f5f565b60405180910390f35b3480156101a857600080fd5b506101c360048036038101906101be9190611257565b610b22565b6040516101da9b9a99989796959493929190611553565b60405180910390f35b600360009054906101000a900473ffffffffffffffffffffffffffffffffffffffff1681565b60015481565b600260009054906101000a900473ffffffffffffffffffffffffffffffffffffffff1681565b60606000805467ffffffffffffffff8111156102545761025361128e565b5b60405190808252806020026020018201604052801561028d57816020015b61027a610e64565b8152602001906001900390816102725790505b50905060005b60005481101561069b576004600082815260200190815260200160002060405180610160016040529081600082015481526020016001820180546102d690611650565b80601f016020809104026020016040519081016040528092919081815260200182805461030290611650565b801561034f5780601f106103245761010080835404028352916020019161034f565b820191906000526020600020905b81548152906001019060200180831161033257829003601f168201915b505050505081526020016002820154815260200160038201805461037290611650565b80601f016020809104026020016040519081016040528092919081815260200182805461039e90611650565b80156103eb5780601f106103c0576101008083540402835291602001916103eb565b820191906000526020600020905b8154815290600101906020018083116103ce57829003601f168201915b5050505050815260200160048201805461040490611650565b80601f016020809104026020016040519081016040528092919081815260200182805461043090611650565b801561047d5780601f106104525761010080835404028352916020019161047d565b820191906000526020600020905b81548152906001019060200180831161046057829003601f168201915b5050505050815260200160058201805461049690611650565b80601f01602080910402602001604051908101604052809291908181526020018280546104c290611650565b801561050f5780601f106104e45761010080835404028352916020019161050f565b820191906000526020600020905b8154815290600101906020018083116104f257829003601f168201915b5050505050815260200160068201805461052890611650565b80601f016020809104026020016040519081016040528092919081815260200182805461055490611650565b80156105a15780601f10610576576101008083540402835291602001916105a1565b820191906000526020600020905b81548152906001019060200180831161058457829003601f168201915b5050505050815260200160078201548152602001600882015481526020016009820160009054906101000a900473ffffffffffffffffffffffffffffffffffffffff1673ffffffffffffffffffffffffffffffffffffffff1673ffffffffffffffffffffffffffffffffffffffff168152602001600a820160009054906101000a900473ffffffffffffffffffffffffffffffffffffffff1673ffffffffffffffffffffffffffffffffffffffff1673ffffffffffffffffffffffffffffffffffffffff168152505082828151811061067d5761067c611681565b5b60200260200101819052508080610693906116df565b915050610293565b508091505090565b806004600082815260200190815260200160002060090160009054906101000a900473ffffffffffffffffffffffffffffffffffffffff1673ffffffffffffffffffffffffffffffffffffffff163373ffffffffffffffffffffffffffffffffffffffff1614610748576040517f08c379a000000000000000000000000000000000000000000000000000000000815260040161073f90611773565b60405180910390fd5b600060046000848152602001908152602001600020600a0160009054906101000a900473ffffffffffffffffffffffffffffffffffffffff1690506000600460008581526020019081526020016000206008015490508173ffffffffffffffffffffffffffffffffffffffff166108fc829081150290604051600060405180830381858888f193505050501580156107e4573d6000803e3d6000fd5b50600160008154809291906107f8906116df565b91905055504260046000868152602001908152602001600020600701819055506040518060400160405280600981526020017f436f6e6669726d65640000000000000000000000000000000000000000000000815250600460008681526020019081526020016000206001019081610870919061193f565b5050505050565b8073ffffffffffffffffffffffffffffffffffffffff163373ffffffffffffffffffffffffffffffffffffffff16036108e5576040517f08c379a00000000000000000000000000000000000000000000000000000000081526004016108dc90611a5d565b60405180910390fd5b60006040518060400160405280600781526020017f50656e64696e67000000000000000000000000000000000000000000000000008152509050600080815480929190610931906116df565b919050555060008060005411610948576000610958565b60016000546109579190611a7d565b5b905060405180610160016040528060005481526020018381526020018a81526020018981526020018881526020018781526020018681526020014281526020018581526020013373ffffffffffffffffffffffffffffffffffffffff1681526020018473ffffffffffffffffffffffffffffffffffffffff1681525060046000838152602001908152602001600020600082015181600001556020820151816001019081610a06919061193f565b50604082015181600201556060820151816003019081610a26919061193f565b506080820151816004019081610a3c919061193f565b5060a0820151816005019081610a52919061193f565b5060c0820151816006019081610a68919061193f565b5060e0820151816007015561010082015181600801556101208201518160090160006101000a81548173ffffffffffffffffffffffffffffffffffffffff021916908373ffffffffffffffffffffffffffffffffffffffff16021790555061014082015181600a0160006101000a81548173ffffffffffffffffffffffffffffffffffffffff021916908373ffffffffffffffffffffffffffffffffffffffff160217905550905050505050505050505050565b60005481565b6004602052806000526040600020600091509050806000015490806001018054610b4b90611650565b80601f0160208091040260200160405190810160405280929190818152602001828054610b7790611650565b8015610bc45780601f10610b9957610100808354040283529160200191610bc4565b820191906000526020600020905b815481529060010190602001808311610ba757829003601f168201915b505050505090806002015490806003018054610bdf90611650565b80601f0160208091040260200160405190810160405280929190818152602001828054610c0b90611650565b8015610c585780601f10610c2d57610100808354040283529160200191610c58565b820191906000526020600020905b815481529060010190602001808311610c3b57829003601f168201915b505050505090806004018054610c6d90611650565b80601f0160208091040260200160405190810160405280929190818152602001828054610c9990611650565b8015610ce65780601f10610cbb57610100808354040283529160200191610ce6565b820191906000526020600020905b815481529060010190602001808311610cc957829003601f168201915b505050505090806005018054610cfb90611650565b80601f0160208091040260200160405190810160405280929190818152602001828054610d2790611650565b8015610d745780601f10610d4957610100808354040283529160200191610d74565b820191906000526020600020905b815481529060010190602001808311610d5757829003601f168201915b505050505090806006018054610d8990611650565b80601f0160208091040260200160405190810160405280929190818152602001828054610db590611650565b8015610e025780601f10610dd757610100808354040283529160200191610e02565b820191906000526020600020905b815481529060010190602001808311610de557829003601f168201915b5050505050908060070154908060080154908060090160009054906101000a900473ffffffffffffffffffffffffffffffffffffffff169080600a0160009054906101000a900473ffffffffffffffffffffffffffffffffffffffff1690508b565b604051806101600160405280600081526020016060815260200160008152602001606081526020016060815260200160608152602001606081526020016000815260200160008152602001600073ffffffffffffffffffffffffffffffffffffffff168152602001600073ffffffffffffffffffffffffffffffffffffffff1681525090565b600073ffffffffffffffffffffffffffffffffffffffff82169050919050565b6000610f1582610eea565b9050919050565b610f2581610f0a565b82525050565b6000602082019050610f406000830184610f1c565b92915050565b6000819050919050565b610f5981610f46565b82525050565b6000602082019050610f746000830184610f50565b92915050565b600081519050919050565b600082825260208201905092915050565b6000819050602082019050919050565b610faf81610f46565b82525050565b600081519050919050565b600082825260208201905092915050565b60005b83811015610fef578082015181840152602081019050610fd4565b60008484015250505050565b6000601f19601f8301169050919050565b600061101782610fb5565b6110218185610fc0565b9350611031818560208601610fd1565b61103a81610ffb565b840191505092915050565b61104e81610f0a565b82525050565b60006101608301600083015161106d6000860182610fa6565b5060208301518482036020860152611085828261100c565b915050604083015161109a6040860182610fa6565b50606083015184820360608601526110b2828261100c565b915050608083015184820360808601526110cc828261100c565b91505060a083015184820360a08601526110e6828261100c565b91505060c083015184820360c0860152611100828261100c565b91505060e083015161111560e0860182610fa6565b5061010083015161112a610100860182610fa6565b5061012083015161113f610120860182611045565b50610140830151611154610140860182611045565b508091505092915050565b600061116b8383611054565b905092915050565b6000602082019050919050565b600061118b82610f7a565b6111958185610f85565b9350836020820285016111a785610f96565b8060005b858110156111e357848403895281516111c4858261115f565b94506111cf83611173565b925060208a019950506001810190506111ab565b50829750879550505050505092915050565b6000602082019050818103600083015261120f8184611180565b905092915050565b6000604051905090565b600080fd5b600080fd5b61123481610f46565b811461123f57600080fd5b50565b6000813590506112518161122b565b92915050565b60006020828403121561126d5761126c611221565b5b600061127b84828501611242565b91505092915050565b600080fd5b600080fd5b7f4e487b7100000000000000000000000000000000000000000000000000000000600052604160045260246000fd5b6112c682610ffb565b810181811067ffffffffffffffff821117156112e5576112e461128e565b5b80604052505050565b60006112f8611217565b905061130482826112bd565b919050565b600067ffffffffffffffff8211156113245761132361128e565b5b61132d82610ffb565b9050602081019050919050565b82818337600083830152505050565b600061135c61135784611309565b6112ee565b90508281526020810184848401111561137857611377611289565b5b61138384828561133a565b509392505050565b600082601f8301126113a05761139f611284565b5b81356113b0848260208601611349565b91505092915050565b60006113c482610eea565b9050919050565b6113d4816113b9565b81146113df57600080fd5b50565b6000813590506113f1816113cb565b92915050565b600080600080600080600060e0888a03121561141657611415611221565b5b60006114248a828b01611242565b975050602088013567ffffffffffffffff81111561144557611444611226565b5b6114518a828b0161138b565b965050604088013567ffffffffffffffff81111561147257611471611226565b5b61147e8a828b0161138b565b955050606088013567ffffffffffffffff81111561149f5761149e611226565b5b6114ab8a828b0161138b565b945050608088013567ffffffffffffffff8111156114cc576114cb611226565b5b6114d88a828b0161138b565b93505060a06114e98a828b01611242565b92505060c06114fa8a828b016113e2565b91505092959891949750929550565b600082825260208201905092915050565b600061152582610fb5565b61152f8185611509565b935061153f818560208601610fd1565b61154881610ffb565b840191505092915050565b600061016082019050611569600083018e610f50565b818103602083015261157b818d61151a565b905061158a604083018c610f50565b818103606083015261159c818b61151a565b905081810360808301526115b0818a61151a565b905081810360a08301526115c4818961151a565b905081810360c08301526115d8818861151a565b90506115e760e0830187610f50565b6115f5610100830186610f50565b611603610120830185610f1c565b611611610140830184610f1c565b9c9b505050505050505050505050565b7f4e487b7100000000000000000000000000000000000000000000000000000000600052602260045260246000fd5b6000600282049050600182168061166857607f821691505b60208210810361167b5761167a611621565b5b50919050565b7f4e487b7100000000000000000000000000000000000000000000000000000000600052603260045260246000fd5b7f4e487b7100000000000000000000000000000000000000000000000000000000600052601160045260246000fd5b60006116ea82610f46565b91507fffffffffffffffffffffffffffffffffffffffffffffffffffffffffffffffff820361171c5761171b6116b0565b5b600182019050919050565b7f4f6e6c7920646f6e6f722063616e206163636573732074686973000000000000600082015250565b600061175d601a83611509565b915061176882611727565b602082019050919050565b6000602082019050818103600083015261178c81611750565b9050919050565b60008190508160005260206000209050919050565b60006020601f8301049050919050565b600082821b905092915050565b6000600883026117f57fffffffffffffffffffffffffffffffffffffffffffffffffffffffffffffffff826117b8565b6117ff86836117b8565b95508019841693508086168417925050509392505050565b6000819050919050565b600061183c61183761183284610f46565b611817565b610f46565b9050919050565b6000819050919050565b61185683611821565b61186a61186282611843565b8484546117c5565b825550505050565b600090565b61187f611872565b61188a81848461184d565b505050565b5b818110156118ae576118a3600082611877565b600181019050611890565b5050565b601f8211156118f3576118c481611793565b6118cd846117a8565b810160208510156118dc578190505b6118f06118e8856117a8565b83018261188f565b50505b505050565b600082821c905092915050565b6000611916600019846008026118f8565b1980831691505092915050565b600061192f8383611905565b9150826002028217905092915050565b61194882610fb5565b67ffffffffffffffff8111156119615761196061128e565b5b61196b8254611650565b6119768282856118b2565b600060209050601f8311600181146119a95760008415611997578287015190505b6119a18582611923565b865550611a09565b601f1984166119b786611793565b60005b828110156119df578489015182556001820191506020850194506020810190506119ba565b868310156119fc57848901516119f8601f891682611905565b8355505b6001600288020188555050505b505050505050565b7f496e76616c696420616464726573730000000000000000000000000000000000600082015250565b6000611a47600f83611509565b9150611a5282611a11565b602082019050919050565b60006020820190508181036000830152611a7681611a3a565b9050919050565b6000611a8882610f46565b9150611a9383610f46565b9250828203905081811115611aab57611aaa6116b0565b5b9291505056fea2646970667358221220a11c5cc4939f59955c648de1b003dd4a4a665f2f3c026bb3bed5a334dd98c01164736f6c63430008130033",
  "immutableReferences": {},
  "source": "pragma solidity ^0.8.0;\r\n\r\ncontract Donations {\r\nuint public totalDonations=0;\r\nuint public confirmedDonations=0;\r\naddress payable public donor;\r\naddress payable public club;\r\n    \r\n   \r\n\r\n    struct Donation {\r\n        uint id;\r\n        string status;\r\n        uint donorid;\r\n        string clubid;\r\n        string donorname;\r\n        string clubname;\r\n        string donormail;\r\n        uint timestamp;\r\n        uint amount;\r\n        address payable donorAddress;\r\n        address payable clubAddress;\r\n    }\r\n\r\n    mapping(uint => Donation) public donations;\r\n\r\n\r\n    modifier onlyPresident(uint _index) {\r\n        require(msg.sender == donations[_index].clubAddress, \"Only club president can access this\");\r\n        _;\r\n    }\r\n\r\n     modifier onlyDonor(uint _index) {\r\n        require(msg.sender == donations[_index].donorAddress, \"Only donor can access this\");\r\n        _;\r\n    }\r\n\r\n     function addDonation( uint _donorId,string memory _clubId,string memory _donorname,string memory _clubname,string memory _donormail, uint _amount, address  _clubAddr) public payable {\r\n        require(msg.sender != _clubAddr,\"Invalid address\");\r\n        string memory _status=\"Pending\";\r\n        totalDonations ++;\r\n        uint donationId = totalDonations > 0 ? totalDonations - 1 : 0;\r\n        donations[donationId] = Donation(totalDonations,_status,_donorId,_clubId,_donorname,_clubname,_donormail,block.timestamp, _amount, payable(msg.sender), payable(_clubAddr)); \r\n    }\r\n\r\n    function signDonation(uint _index) public onlyDonor(_index) {\r\n        address payable _clubAddress = donations[_index].clubAddress;\r\n        uint _amount = donations[_index].amount;\r\n        _clubAddress.transfer(_amount);\r\n        confirmedDonations ++;\r\n        donations[_index].timestamp=block.timestamp;\r\n        donations[_index].status=\"Confirmed\";\r\n    }\r\n\r\n    function getAllDonations() public  view returns (Donation[] memory) {\r\n    Donation[] memory allDonations = new Donation[](totalDonations);\r\n    for (uint i = 0; i < totalDonations; i++) {\r\n        allDonations[i] = donations[i];\r\n    }\r\n    return allDonations;\r\n}\r\n   \r\n\r\n\r\n}",
  "sourcePath": "C:\\Users\\MSI\\Desktop\\oasisproject\\OASISGIT\\OASIS\\OASIS\\OASIS-truffle\\contracts\\Donations.sol",
  "compiler": {
    "name": "solc",
    "version": "0.8.19+commit.7dd6d404.Emscripten.clang"
  },
  "schemaVersion": "3.4.13",
  "updatedAt": "2023-05-10T01:54:43.419Z",
  "networkType": "ethereum",
  "devdoc": {
    "kind": "dev",
    "methods": {},
    "version": 1
  },
  "userdoc": {
    "kind": "user",
    "methods": {},
    "version": 1
  }
}